{
  "address": "0x9fE46736679d2D9a65F0992F2272dE9f3c7fa6e0",
  "abi": [
    {
      "inputs": [
        {
          "internalType": "address",
          "name": "cardContract",
          "type": "address"
        },
        {
          "internalType": "address",
          "name": "boosterContract",
          "type": "address"
        }
      ],
      "stateMutability": "nonpayable",
      "type": "constructor"
    },
    {
      "inputs": [],
      "name": "AccessControlBadConfirmation",
      "type": "error"
    },
    {
      "inputs": [
        {
          "internalType": "address",
          "name": "account",
          "type": "address"
        },
        {
          "internalType": "bytes32",
          "name": "neededRole",
          "type": "bytes32"
        }
      ],
      "name": "AccessControlUnauthorizedAccount",
      "type": "error"
    },
    {
      "anonymous": false,
      "inputs": [
        {
          "indexed": true,
          "internalType": "bytes32",
          "name": "role",
          "type": "bytes32"
        },
        {
          "indexed": true,
          "internalType": "bytes32",
          "name": "previousAdminRole",
          "type": "bytes32"
        },
        {
          "indexed": true,
          "internalType": "bytes32",
          "name": "newAdminRole",
          "type": "bytes32"
        }
      ],
      "name": "RoleAdminChanged",
      "type": "event"
    },
    {
      "anonymous": false,
      "inputs": [
        {
          "indexed": true,
          "internalType": "bytes32",
          "name": "role",
          "type": "bytes32"
        },
        {
          "indexed": true,
          "internalType": "address",
          "name": "account",
          "type": "address"
        },
        {
          "indexed": true,
          "internalType": "address",
          "name": "sender",
          "type": "address"
        }
      ],
      "name": "RoleGranted",
      "type": "event"
    },
    {
      "anonymous": false,
      "inputs": [
        {
          "indexed": true,
          "internalType": "bytes32",
          "name": "role",
          "type": "bytes32"
        },
        {
          "indexed": true,
          "internalType": "address",
          "name": "account",
          "type": "address"
        },
        {
          "indexed": true,
          "internalType": "address",
          "name": "sender",
          "type": "address"
        }
      ],
      "name": "RoleRevoked",
      "type": "event"
    },
    {
      "inputs": [],
      "name": "COLLECTION_ROLE",
      "outputs": [
        {
          "internalType": "bytes32",
          "name": "",
          "type": "bytes32"
        }
      ],
      "stateMutability": "view",
      "type": "function"
    },
    {
      "inputs": [],
      "name": "DEFAULT_ADMIN_ROLE",
      "outputs": [
        {
          "internalType": "bytes32",
          "name": "",
          "type": "bytes32"
        }
      ],
      "stateMutability": "view",
      "type": "function"
    },
    {
      "inputs": [],
      "name": "MINTER_ROLE",
      "outputs": [
        {
          "internalType": "bytes32",
          "name": "",
          "type": "bytes32"
        }
      ],
      "stateMutability": "view",
      "type": "function"
    },
    {
      "inputs": [
        {
          "internalType": "uint256",
          "name": "",
          "type": "uint256"
        }
      ],
      "name": "collections",
      "outputs": [
        {
          "internalType": "contract Collection",
          "name": "",
          "type": "address"
        }
      ],
      "stateMutability": "view",
      "type": "function"
    },
    {
      "inputs": [
        {
          "internalType": "string",
          "name": "_name",
          "type": "string"
        },
        {
          "internalType": "uint256",
          "name": "_expectedCount",
          "type": "uint256"
        }
      ],
      "name": "createCollection",
      "outputs": [
        {
          "internalType": "contract Collection",
          "name": "",
          "type": "address"
        }
      ],
      "stateMutability": "nonpayable",
      "type": "function"
    },
    {
      "inputs": [
        {
          "internalType": "uint256",
          "name": "_collectionId",
          "type": "uint256"
        }
      ],
      "name": "getCollectionById",
      "outputs": [
        {
          "internalType": "contract Collection",
          "name": "",
          "type": "address"
        }
      ],
      "stateMutability": "view",
      "type": "function"
    },
    {
      "inputs": [
        {
          "internalType": "string",
          "name": "_name",
          "type": "string"
        }
      ],
      "name": "getCollectionByName",
      "outputs": [
        {
          "internalType": "contract Collection",
          "name": "",
          "type": "address"
        }
      ],
      "stateMutability": "view",
      "type": "function"
    },
    {
      "inputs": [],
      "name": "getCollections",
      "outputs": [
        {
          "internalType": "contract Collection[]",
          "name": "",
          "type": "address[]"
        }
      ],
      "stateMutability": "view",
      "type": "function"
    },
    {
      "inputs": [
        {
          "internalType": "bytes32",
          "name": "role",
          "type": "bytes32"
        }
      ],
      "name": "getRoleAdmin",
      "outputs": [
        {
          "internalType": "bytes32",
          "name": "",
          "type": "bytes32"
        }
      ],
      "stateMutability": "view",
      "type": "function"
    },
    {
      "inputs": [
        {
          "internalType": "bytes32",
          "name": "role",
          "type": "bytes32"
        },
        {
          "internalType": "address",
          "name": "account",
          "type": "address"
        }
      ],
      "name": "grantRole",
      "outputs": [],
      "stateMutability": "nonpayable",
      "type": "function"
    },
    {
      "inputs": [
        {
          "internalType": "string",
          "name": "_name",
          "type": "string"
        }
      ],
      "name": "hasCollection",
      "outputs": [
        {
          "internalType": "bool",
          "name": "",
          "type": "bool"
        }
      ],
      "stateMutability": "view",
      "type": "function"
    },
    {
      "inputs": [
        {
          "internalType": "bytes32",
          "name": "role",
          "type": "bytes32"
        },
        {
          "internalType": "address",
          "name": "account",
          "type": "address"
        }
      ],
      "name": "hasRole",
      "outputs": [
        {
          "internalType": "bool",
          "name": "",
          "type": "bool"
        }
      ],
      "stateMutability": "view",
      "type": "function"
    },
    {
      "inputs": [
        {
          "internalType": "address",
          "name": "_to",
          "type": "address"
        },
        {
          "internalType": "string",
          "name": "_boosterUri",
          "type": "string"
        },
        {
          "internalType": "uint256[]",
          "name": "_cardIds",
          "type": "uint256[]"
        }
      ],
      "name": "mintBooster",
      "outputs": [
        {
          "internalType": "uint256",
          "name": "",
          "type": "uint256"
        }
      ],
      "stateMutability": "nonpayable",
      "type": "function"
    },
    {
      "inputs": [
        {
          "internalType": "contract Collection",
          "name": "_collection",
          "type": "address"
        },
        {
          "internalType": "string",
          "name": "_cardUri",
          "type": "string"
        }
      ],
      "name": "mintCardForCollection",
      "outputs": [
        {
          "internalType": "uint256",
          "name": "",
          "type": "uint256"
        }
      ],
      "stateMutability": "nonpayable",
      "type": "function"
    },
    {
      "inputs": [
        {
          "internalType": "contract Collection",
          "name": "_collection",
          "type": "address"
        },
        {
          "internalType": "string[]",
          "name": "_cardUris",
          "type": "string[]"
        }
      ],
      "name": "mintCardsForCollection",
      "outputs": [
        {
          "internalType": "uint256[]",
          "name": "",
          "type": "uint256[]"
        }
      ],
      "stateMutability": "nonpayable",
      "type": "function"
    },
    {
      "inputs": [
        {
          "internalType": "address",
          "name": "",
          "type": "address"
        },
        {
          "internalType": "address",
          "name": "",
          "type": "address"
        },
        {
          "internalType": "uint256",
          "name": "",
          "type": "uint256"
        },
        {
          "internalType": "bytes",
          "name": "",
          "type": "bytes"
        }
      ],
      "name": "onERC721Received",
      "outputs": [
        {
          "internalType": "bytes4",
          "name": "",
          "type": "bytes4"
        }
      ],
      "stateMutability": "nonpayable",
      "type": "function"
    },
    {
      "inputs": [
        {
          "internalType": "bytes32",
          "name": "role",
          "type": "bytes32"
        },
        {
          "internalType": "address",
          "name": "callerConfirmation",
          "type": "address"
        }
      ],
      "name": "renounceRole",
      "outputs": [],
      "stateMutability": "nonpayable",
      "type": "function"
    },
    {
      "inputs": [
        {
          "internalType": "bytes32",
          "name": "role",
          "type": "bytes32"
        },
        {
          "internalType": "address",
          "name": "account",
          "type": "address"
        }
      ],
      "name": "revokeRole",
      "outputs": [],
      "stateMutability": "nonpayable",
      "type": "function"
    },
    {
      "inputs": [
        {
          "internalType": "bytes4",
          "name": "interfaceId",
          "type": "bytes4"
        }
      ],
      "name": "supportsInterface",
      "outputs": [
        {
          "internalType": "bool",
          "name": "",
          "type": "bool"
        }
      ],
      "stateMutability": "view",
      "type": "function"
    },
    {
      "inputs": [
        {
          "internalType": "address",
          "name": "_to",
          "type": "address"
        },
        {
          "internalType": "uint256",
          "name": "_cardId",
          "type": "uint256"
        }
      ],
      "name": "transferCard",
      "outputs": [],
      "stateMutability": "nonpayable",
      "type": "function"
    },
    {
      "inputs": [
        {
          "internalType": "address",
          "name": "_to",
          "type": "address"
        },
        {
          "internalType": "uint256[]",
          "name": "_cardIds",
          "type": "uint256[]"
        }
      ],
      "name": "transferCards",
      "outputs": [],
      "stateMutability": "nonpayable",
      "type": "function"
    }
  ],
  "transactionHash": "0xacc8791af4529dbdc1d8848350498d065e39ed20a6a0bce786507cbbc867800a",
  "args": [
    "0x5FbDB2315678afecb367f032d93F642f64180aa3",
    "0xe7f1725E7734CE288F8367e1Bb143E90bb3F0512"
  ],
  "numDeployments": 1,
  "solcInputHash": "55fe5de3f130831ee7b520965b69f922",
  "bytecode": "0x60806040523480156200001157600080fd5b5060405162002276380380620022768339810160408190526200003491620001f9565b620000416000336200012d565b506200006e7f9f2df0fed2c77648de5860a4cc508cd0818c85b8b8a1ab4ceeef8d981c8956a6336200012d565b506200009b7f40a5c770eee7730548a6335e1f372e76bf4759f6fda1a932bd9cfc33106f0b4c336200012d565b50600280546001600160a01b038481166001600160a01b031992831681179093556003805491851691909216811790915560405163a22cb46560e01b815260048101919091526001602482015263a22cb46590604401600060405180830381600087803b1580156200010c57600080fd5b505af115801562000121573d6000803e3d6000fd5b50505050505062000231565b6000828152602081815260408083206001600160a01b038516845290915281205460ff16620001d2576000838152602081815260408083206001600160a01b03861684529091529020805460ff19166001179055620001893390565b6001600160a01b0316826001600160a01b0316847f2f8788117e7eff1d82e926ec794901d17c78024a50270940304540a733656f0d60405160405180910390a4506001620001d6565b5060005b92915050565b80516001600160a01b0381168114620001f457600080fd5b919050565b600080604083850312156200020d57600080fd5b6200021883620001dc565b91506200022860208401620001dc565b90509250929050565b61203580620002416000396000f3fe60806040523480156200001157600080fd5b5060043610620001955760003560e01c8063710c312711620000e9578063cd318a981162000097578063e547cb85116200006e578063e547cb85146200040b578063fdbda0ec1462000422578063fe03bdb4146200043957600080fd5b8063cd318a9814620003b5578063d539139314620003cc578063d547741f14620003f457600080fd5b80639b81a35911620000cc5780639b81a359146200036f578063a217fddf1462000386578063a5c6a72a146200038f57600080fd5b8063710c3127146200031e57806391d14854146200033557600080fd5b80632f2ff15d116200014757806346e63586116200012a57806346e6358614620002d75780635dd7ce8614620002f057806364d54151146200030757600080fd5b80632f2ff15d14620002a757806336568abe14620002c057600080fd5b8063150b7a02116200017c578063150b7a0214620001fd578063227cb81f1462000251578063248a9ca3146200028157600080fd5b806301ffc9a7146200019a578063145f8dd414620001c6575b600080fd5b620001b1620001ab36600462000f3d565b62000450565b60405190151581526020015b60405180910390f35b620001ee7f40a5c770eee7730548a6335e1f372e76bf4759f6fda1a932bd9cfc33106f0b4c81565b604051908152602001620001bd565b620002376200020e36600462001027565b7f150b7a0200000000000000000000000000000000000000000000000000000000949350505050565b6040516001600160e01b03199091168152602001620001bd565b6200026862000262366004620010fc565b620004ba565b6040516001600160a01b039091168152602001620001bd565b620001ee6200029236600462001142565b60009081526020819052604090206001015490565b620002be620002b83660046200115c565b62000546565b005b620002be620002d13660046200115c565b62000575565b620002e1620005c9565b604051620001bd91906200118f565b620001ee6200030136600462001226565b6200062d565b6200026862000318366004620012b2565b620006ff565b620001b16200032f366004620010fc565b620008f9565b620001b1620003463660046200115c565b6000918252602082815260408084206001600160a01b0393909316845291905290205460ff1690565b620002be6200038036600462001302565b6200093c565b620001ee600081565b620003a6620003a036600462001354565b620009f4565b604051620001bd91906200143c565b620002be620003c636600462001476565b62000ae2565b620001ee7f9f2df0fed2c77648de5860a4cc508cd0818c85b8b8a1ab4ceeef8d981c8956a681565b620002be620004053660046200115c565b62000b5d565b620002686200041c36600462001142565b62000b86565b620002686200043336600462001142565b62000c0d565b620001ee6200044a366004620014d1565b62000c38565b60006001600160e01b031982167f7965db0b000000000000000000000000000000000000000000000000000000001480620004b457507f01ffc9a7000000000000000000000000000000000000000000000000000000006001600160e01b03198316145b92915050565b60008060048484604051620004d192919062001527565b908152604051908190036020019020546001600160a01b03169050806200053f5760405162461bcd60e51b815260206004820152601960248201527f436f6c6c656374696f6e20646f6573206e6f742065786973740000000000000060448201526064015b60405180910390fd5b9392505050565b600082815260208190526040902060010154620005638162000d7b565b6200056f838362000d8a565b50505050565b6001600160a01b0381163314620005b8576040517f6697b23200000000000000000000000000000000000000000000000000000000815260040160405180910390fd5b620005c4828262000e38565b505050565b606060018054806020026020016040519081016040528092919081815260200182805480156200062357602002820191906000526020600020905b81546001600160a01b0316815260019091019060200180831162000604575b5050505050905090565b60007f9f2df0fed2c77648de5860a4cc508cd0818c85b8b8a1ab4ceeef8d981c8956a66200065b8162000d7b565b6003546040517f8ff142eb0000000000000000000000000000000000000000000000000000000081526001600160a01b0390911690638ff142eb90620006ae908a908a908a908a908a9060040162001560565b6020604051808303816000875af1158015620006ce573d6000803e3d6000fd5b505050506040513d601f19601f82011682018060405250810190620006f49190620015d8565b979650505050505050565b60007f40a5c770eee7730548a6335e1f372e76bf4759f6fda1a932bd9cfc33106f0b4c6200072d8162000d7b565b836200077c5760405162461bcd60e51b815260206004820152601460248201527f4e616d652063616e6e6f7420626520656d707479000000000000000000000000604482015260640162000536565b60006001600160a01b0316600486866040516200079b92919062001527565b908152604051908190036020019020546001600160a01b031614620008035760405162461bcd60e51b815260206004820152601960248201527f436f6c6c656374696f6e20616c72656164792065786973747300000000000000604482015260640162000536565b6000858585604051620008169062000f2f565b6200082493929190620015f2565b604051809103906000f08015801562000841573d6000803e3d6000fd5b506001805480820182556000919091527fb10e2d527612073b26eecdfd717e6a320cf44b4afac2b0732d9fcbe2b7fa0cf601805473ffffffffffffffffffffffffffffffffffffffff19166001600160a01b0383161790556040519091508190600490620008b3908990899062001527565b90815260405190819003602001902080546001600160a01b039290921673ffffffffffffffffffffffffffffffffffffffff199092169190911790559150509392505050565b6000806001600160a01b0316600484846040516200091992919062001527565b908152604051908190036020019020546001600160a01b03161415905092915050565b7f9f2df0fed2c77648de5860a4cc508cd0818c85b8b8a1ab4ceeef8d981c8956a6620009688162000d7b565b6002546040517f42842e0e0000000000000000000000000000000000000000000000000000000081523060048201526001600160a01b03858116602483015260448201859052909116906342842e0e90606401600060405180830381600087803b158015620009d657600080fd5b505af1158015620009eb573d6000803e3d6000fd5b50505050505050565b60607f9f2df0fed2c77648de5860a4cc508cd0818c85b8b8a1ab4ceeef8d981c8956a662000a228162000d7b565b825160008167ffffffffffffffff81111562000a425762000a4262000f7f565b60405190808252806020026020018201604052801562000a6c578160200160208202803683370190505b50905060005b8281101562000ad85762000aa38787838151811062000a955762000a9562001618565b602002602001015162000c38565b82828151811062000ab85762000ab862001618565b60209081029190910101528062000acf816200162e565b91505062000a72565b5095945050505050565b7f9f2df0fed2c77648de5860a4cc508cd0818c85b8b8a1ab4ceeef8d981c8956a662000b0e8162000d7b565b60005b8281101562000b565762000b418585858481811062000b345762000b3462001618565b905060200201356200093c565b8062000b4d816200162e565b91505062000b11565b5050505050565b60008281526020819052604090206001015462000b7a8162000d7b565b6200056f838362000e38565b600154600090821062000bdc5760405162461bcd60e51b815260206004820152601960248201527f436f6c6c656374696f6e20646f6573206e6f7420657869737400000000000000604482015260640162000536565b6001828154811062000bf25762000bf262001618565b6000918252602090912001546001600160a01b031692915050565b6001818154811062000c1e57600080fd5b6000918252602090912001546001600160a01b0316905081565b60007f9f2df0fed2c77648de5860a4cc508cd0818c85b8b8a1ab4ceeef8d981c8956a662000c668162000d7b565b6002546040517fd0def5210000000000000000000000000000000000000000000000000000000081526000916001600160a01b03169063d0def5219062000cb4903090889060040162001656565b6020604051808303816000875af115801562000cd4573d6000803e3d6000fd5b505050506040513d601f19601f8201168201806040525081019062000cfa9190620015d8565b6040517ff9e53755000000000000000000000000000000000000000000000000000000008152600481018290529091506001600160a01b0386169063f9e5375590602401600060405180830381600087803b15801562000d5957600080fd5b505af115801562000d6e573d6000803e3d6000fd5b5092979650505050505050565b62000d87813362000ebd565b50565b6000828152602081815260408083206001600160a01b038516845290915281205460ff1662000e2f576000838152602081815260408083206001600160a01b03861684529091529020805460ff1916600117905562000de63390565b6001600160a01b0316826001600160a01b0316847f2f8788117e7eff1d82e926ec794901d17c78024a50270940304540a733656f0d60405160405180910390a4506001620004b4565b506000620004b4565b6000828152602081815260408083206001600160a01b038516845290915281205460ff161562000e2f576000838152602081815260408083206001600160a01b0386168085529252808320805460ff1916905551339286917ff6391f5c32d9c69d2a47ea670b442974b53935d1edc7fd64eb21e047a839171b9190a4506001620004b4565b6000828152602081815260408083206001600160a01b038516845290915290205460ff1662000f2b576040517fe2517d3f0000000000000000000000000000000000000000000000000000000081526001600160a01b03821660048201526024810183905260440162000536565b5050565b61094880620016b883390190565b60006020828403121562000f5057600080fd5b81356001600160e01b0319811681146200053f57600080fd5b6001600160a01b038116811462000d8757600080fd5b634e487b7160e01b600052604160045260246000fd5b604051601f8201601f1916810167ffffffffffffffff8111828210171562000fc15762000fc162000f7f565b604052919050565b600067ffffffffffffffff83111562000fe65762000fe662000f7f565b62000ffb601f8401601f191660200162000f95565b90508281528383830111156200101057600080fd5b828260208301376000602084830101529392505050565b600080600080608085870312156200103e57600080fd5b84356200104b8162000f69565b935060208501356200105d8162000f69565b925060408501359150606085013567ffffffffffffffff8111156200108157600080fd5b8501601f810187136200109357600080fd5b620010a48782356020840162000fc9565b91505092959194509250565b60008083601f840112620010c357600080fd5b50813567ffffffffffffffff811115620010dc57600080fd5b602083019150836020828501011115620010f557600080fd5b9250929050565b600080602083850312156200111057600080fd5b823567ffffffffffffffff8111156200112857600080fd5b6200113685828601620010b0565b90969095509350505050565b6000602082840312156200115557600080fd5b5035919050565b600080604083850312156200117057600080fd5b823591506020830135620011848162000f69565b809150509250929050565b6020808252825182820181905260009190848201906040850190845b81811015620011d25783516001600160a01b031683529284019291840191600101620011ab565b50909695505050505050565b60008083601f840112620011f157600080fd5b50813567ffffffffffffffff8111156200120a57600080fd5b6020830191508360208260051b8501011115620010f557600080fd5b6000806000806000606086880312156200123f57600080fd5b85356200124c8162000f69565b9450602086013567ffffffffffffffff808211156200126a57600080fd5b6200127889838a01620010b0565b909650945060408801359150808211156200129257600080fd5b50620012a188828901620011de565b969995985093965092949392505050565b600080600060408486031215620012c857600080fd5b833567ffffffffffffffff811115620012e057600080fd5b620012ee86828701620010b0565b909790965060209590950135949350505050565b600080604083850312156200131657600080fd5b8235620013238162000f69565b946020939093013593505050565b600082601f8301126200134357600080fd5b6200053f8383356020850162000fc9565b600080604083850312156200136857600080fd5b8235620013758162000f69565b915060208381013567ffffffffffffffff808211156200139457600080fd5b818601915086601f830112620013a957600080fd5b813581811115620013be57620013be62000f7f565b8060051b620013cf85820162000f95565b918252838101850191858101908a841115620013ea57600080fd5b86860192505b838310156200142b578235858111156200140a5760008081fd5b6200141a8c89838a010162001331565b8352509186019190860190620013f0565b809750505050505050509250929050565b6020808252825182820181905260009190848201906040850190845b81811015620011d25783518352928401929184019160010162001458565b6000806000604084860312156200148c57600080fd5b8335620014998162000f69565b9250602084013567ffffffffffffffff811115620014b657600080fd5b620014c486828701620011de565b9497909650939450505050565b60008060408385031215620014e557600080fd5b8235620014f28162000f69565b9150602083013567ffffffffffffffff8111156200150f57600080fd5b6200151d8582860162001331565b9150509250929050565b8183823760009101908152919050565b81835281816020850137506000828201602090810191909152601f909101601f19169091010190565b6001600160a01b03861681526060602082015260006200158560608301868862001537565b82810360408401528381527f07ffffffffffffffffffffffffffffffffffffffffffffffffffffffffffffff841115620015be57600080fd5b8360051b8086602084013701602001979650505050505050565b600060208284031215620015eb57600080fd5b5051919050565b6040815260006200160860408301858762001537565b9050826020830152949350505050565b634e487b7160e01b600052603260045260246000fd5b6000600182016200164f57634e487b7160e01b600052601160045260246000fd5b5060010190565b6001600160a01b038316815260006020604081840152835180604085015260005b81811015620016955785810183015185820160600152820162001677565b506000606082860101526060601f19601f83011685010192505050939250505056fe608060405234801561001057600080fd5b506040516200094838038062000948833981016040819052610031916100dd565b338061005757604051631e4fbdf760e01b81526000600482015260240160405180910390fd5b61006081610077565b50600161006d8382610235565b50600455506102f4565b600080546001600160a01b038381166001600160a01b0319831681178455604051919092169283917f8be0079c531659141344cd1fd0a4f28419497f9722a3daafe3b4186f6b6457e09190a35050565b634e487b7160e01b600052604160045260246000fd5b600080604083850312156100f057600080fd5b82516001600160401b038082111561010757600080fd5b818501915085601f83011261011b57600080fd5b81518181111561012d5761012d6100c7565b604051601f8201601f19908116603f01168101908382118183101715610155576101556100c7565b8160405282815260209350888484870101111561017157600080fd5b600091505b828210156101935784820184015181830185015290830190610176565b6000928101840192909252509401519395939450505050565b600181811c908216806101c057607f821691505b6020821081036101e057634e487b7160e01b600052602260045260246000fd5b50919050565b601f82111561023057600081815260208120601f850160051c8101602086101561020d5750805b601f850160051c820191505b8181101561022c57828155600101610219565b5050505b505050565b81516001600160401b0381111561024e5761024e6100c7565b6102628161025c84546101ac565b846101e6565b602080601f831160018114610297576000841561027f5750858301515b600019600386901b1c1916600185901b17855561022c565b600085815260208120601f198616915b828110156102c6578886015182559484019460019091019084016102a7565b50858210156102e45787850151600019600388901b60f8161c191681555b5050505050600190811b01905550565b61064480620003046000396000f3fe608060405234801561001057600080fd5b50600436106100a35760003560e01c806396c07a3511610076578063bc256a491161005b578063bc256a491461011b578063f2fde38b1461013e578063f9e537551461015157600080fd5b806396c07a35146100fd578063b0df9e531461010657600080fd5b806306661abd146100a857806306fdde03146100c3578063715018a6146100d85780638da5cb5b146100e2575b600080fd5b6100b0610164565b6040519081526020015b60405180910390f35b6100cb610175565b6040516100ba91906104e7565b6100e0610203565b005b6000546040516001600160a01b0390911681526020016100ba565b6100b060045481565b61010e610217565b6040516100ba9190610535565b61012e610129366004610579565b610223565b60405190151581526020016100ba565b6100e061014c366004610592565b61023b565b6100e061015f366004610579565b610297565b60006101706002610364565b905090565b60018054610182906105bb565b80601f01602080910402602001604051908101604052809291908181526020018280546101ae906105bb565b80156101fb5780601f106101d0576101008083540402835291602001916101fb565b820191906000526020600020905b8154815290600101906020018083116101de57829003601f168201915b505050505081565b61020b61036e565b61021560006103b4565b565b6060610170600261041c565b60008181526003602052604081205415155b92915050565b61024361036e565b6001600160a01b03811661028b576040517f1e4fbdf7000000000000000000000000000000000000000000000000000000008152600060048201526024015b60405180910390fd5b610294816103b4565b50565b61029f61036e565b600081815260036020526040902054156102fb5760405162461bcd60e51b815260206004820152601a60248201527f4361726420616c726561647920696e20636f6c6c656374696f6e0000000000006044820152606401610282565b6004546103086002610364565b106103555760405162461bcd60e51b815260206004820152601260248201527f436f6c6c656374696f6e2069732066756c6c00000000000000000000000000006044820152606401610282565b610360600282610430565b5050565b6000610235825490565b6000546001600160a01b03163314610215576040517f118cdaa7000000000000000000000000000000000000000000000000000000008152336004820152602401610282565b600080546001600160a01b038381167fffffffffffffffffffffffff0000000000000000000000000000000000000000831681178455604051919092169283917f8be0079c531659141344cd1fd0a4f28419497f9722a3daafe3b4186f6b6457e09190a35050565b606060006104298361043c565b9392505050565b60006104298383610498565b60608160000180548060200260200160405190810160405280929190818152602001828054801561048c57602002820191906000526020600020905b815481526020019060010190808311610478575b50505050509050919050565b60008181526001830160205260408120546104df57508154600181810184556000848152602080822090930184905584548482528286019093526040902091909155610235565b506000610235565b600060208083528351808285015260005b81811015610514578581018301518582016040015282016104f8565b506000604082860101526040601f19601f8301168501019250505092915050565b6020808252825182820181905260009190848201906040850190845b8181101561056d57835183529284019291840191600101610551565b50909695505050505050565b60006020828403121561058b57600080fd5b5035919050565b6000602082840312156105a457600080fd5b81356001600160a01b038116811461042957600080fd5b600181811c908216806105cf57607f821691505b602082108103610608577f4e487b7100000000000000000000000000000000000000000000000000000000600052602260045260246000fd5b5091905056fea2646970667358221220657f22afbe524e95a24b5e274851f59fba3e76d2fda1ca6e5636fce356b2d9bc64736f6c63430008140033a2646970667358221220ba76c61d51cc43138c440d5946a1fe104049bcc5cedb09630445ecfaf849a52164736f6c63430008140033",
  "devdoc": {
    "details": "Main contract, used to create collections and mint cards.",
    "errors": {
      "AccessControlBadConfirmation()": [
        {
          "details": "The caller of a function is not the expected one. NOTE: Don't confuse with {AccessControlUnauthorizedAccount}."
        }
      ],
      "AccessControlUnauthorizedAccount(address,bytes32)": [
        {
          "details": "The `account` is missing a role."
        }
      ]
    },
    "events": {
      "RoleAdminChanged(bytes32,bytes32,bytes32)": {
        "details": "Emitted when `newAdminRole` is set as ``role``'s admin role, replacing `previousAdminRole` `DEFAULT_ADMIN_ROLE` is the starting admin for all roles, despite {RoleAdminChanged} not being emitted signaling this."
      },
      "RoleGranted(bytes32,address,address)": {
        "details": "Emitted when `account` is granted `role`. `sender` is the account that originated the contract call, an admin role bearer except when using {AccessControl-_setupRole}."
      },
      "RoleRevoked(bytes32,address,address)": {
        "details": "Emitted when `account` is revoked `role`. `sender` is the account that originated the contract call:   - if using `revokeRole`, it is the admin role bearer   - if using `renounceRole`, it is the role bearer (i.e. `account`)"
      }
    },
    "kind": "dev",
    "methods": {
      "constructor": {
        "params": {
          "cardContract": "Card contract address"
        }
      },
      "createCollection(string,uint256)": {
        "params": {
          "_expectedCount": "Expected number of cards in the collection",
          "_name": "Collection name"
        },
        "returns": {
          "_0": "The created collection"
        }
      },
      "getCollectionById(uint256)": {
        "params": {
          "_collectionId": "Collection id"
        },
        "returns": {
          "_0": "The collection"
        }
      },
      "getCollectionByName(string)": {
        "params": {
          "_name": "Collection name"
        },
        "returns": {
          "_0": "The collection"
        }
      },
      "getCollections()": {
        "returns": {
          "_0": "All available collections"
        }
      },
      "getRoleAdmin(bytes32)": {
        "details": "Returns the admin role that controls `role`. See {grantRole} and {revokeRole}. To change a role's admin, use {_setRoleAdmin}."
      },
      "grantRole(bytes32,address)": {
        "details": "Grants `role` to `account`. If `account` had not been already granted `role`, emits a {RoleGranted} event. Requirements: - the caller must have ``role``'s admin role. May emit a {RoleGranted} event."
      },
      "hasCollection(string)": {
        "params": {
          "_name": "Collection name"
        },
        "returns": {
          "_0": "Whether if the collection exists"
        }
      },
      "hasRole(bytes32,address)": {
        "details": "Returns `true` if `account` has been granted `role`."
      },
      "mintBooster(address,string,uint256[])": {
        "params": {
          "_boosterUri": "Booster metadata URI",
          "_cardIds": "Array of card ids to add to the booster",
          "_to": "Address to mint the booster to"
        },
        "returns": {
          "_0": "Booster id"
        }
      },
      "mintCardForCollection(address,string)": {
        "returns": {
          "_0": "Card token id"
        }
      },
      "mintCardsForCollection(address,string[])": {
        "returns": {
          "_0": "Array of card token ids"
        }
      },
      "onERC721Received(address,address,uint256,bytes)": {
        "details": "See {IERC721Receiver-onERC721Received}. Always returns `IERC721Receiver.onERC721Received.selector`."
      },
      "renounceRole(bytes32,address)": {
        "details": "Revokes `role` from the calling account. Roles are often managed via {grantRole} and {revokeRole}: this function's purpose is to provide a mechanism for accounts to lose their privileges if they are compromised (such as when a trusted device is misplaced). If the calling account had been revoked `role`, emits a {RoleRevoked} event. Requirements: - the caller must be `callerConfirmation`. May emit a {RoleRevoked} event."
      },
      "revokeRole(bytes32,address)": {
        "details": "Revokes `role` from `account`. If `account` had been granted `role`, emits a {RoleRevoked} event. Requirements: - the caller must have ``role``'s admin role. May emit a {RoleRevoked} event."
      },
      "supportsInterface(bytes4)": {
        "details": "See {IERC165-supportsInterface}."
      },
      "transferCard(address,uint256)": {
        "params": {
          "_cardId": "Card id",
          "_to": "Address to transfer to"
        }
      },
      "transferCards(address,uint256[])": {
        "params": {
          "_cardIds": "Card ids",
          "_to": "Address to transfer to"
        }
      }
    },
    "stateVariables": {
      "_boosterContract": {
        "details": "Booster contract"
      },
      "_cardContract": {
        "details": "Card contract"
      },
      "_collectionsByName": {
        "details": "Mapping of collection names to collections"
      },
      "collections": {
        "details": "Array of all collections"
      }
    },
    "title": "Main",
    "version": 1
  },
  "userdoc": {
    "kind": "user",
    "methods": {
      "constructor": {
        "notice": "Constructor, which takes the address of the Card contract."
      },
      "createCollection(string,uint256)": {
        "notice": "Create a new collection of cards."
      },
      "getCollectionById(uint256)": {
        "notice": "Get a collection by index."
      },
      "getCollectionByName(string)": {
        "notice": "Get a collection by name."
      },
      "getCollections()": {
        "notice": "Get all collections available."
      },
      "hasCollection(string)": {
        "notice": "Check if a collection exists."
      },
      "mintBooster(address,string,uint256[])": {
        "notice": "Mint a booster of cards with `_boosterUri` as the token URI and add the cards `_cardIds` to the booster while transferring them to `_to`."
      },
      "mintCardForCollection(address,string)": {
        "notice": "Mint a new card and add it to the provided collection."
      },
      "mintCardsForCollection(address,string[])": {
        "notice": "Mint multiple cards and add them to the provided collection."
      },
      "transferCard(address,uint256)": {
        "notice": "Transfer a card to an address."
      },
      "transferCards(address,uint256[])": {
        "notice": "Transfer multiple cards to an address."
      }
    },
    "notice": "This contract is used to create collections, mint cards and also used to transfer cards to other addresses, since we assume it's the owner of the Card contract and therefore is the original owner of all cards.",
    "version": 1
  },
  "storageLayout": {
    "storage": [
      {
        "astId": 26,
        "contract": "contracts/Main.sol:Main",
        "label": "_roles",
        "offset": 0,
        "slot": "0",
        "type": "t_mapping(t_bytes32,t_struct(RoleData)21_storage)"
      },
      {
        "astId": 4521,
        "contract": "contracts/Main.sol:Main",
        "label": "collections",
        "offset": 0,
        "slot": "1",
        "type": "t_array(t_contract(Collection)4504)dyn_storage"
      },
      {
        "astId": 4525,
        "contract": "contracts/Main.sol:Main",
        "label": "_cardContract",
        "offset": 0,
        "slot": "2",
        "type": "t_contract(Card)4391"
      },
      {
        "astId": 4529,
        "contract": "contracts/Main.sol:Main",
        "label": "_boosterContract",
        "offset": 0,
        "slot": "3",
        "type": "t_contract(Booster)4334"
      },
      {
        "astId": 4535,
        "contract": "contracts/Main.sol:Main",
        "label": "_collectionsByName",
        "offset": 0,
        "slot": "4",
        "type": "t_mapping(t_string_memory_ptr,t_contract(Collection)4504)"
      }
    ],
    "types": {
      "t_address": {
        "encoding": "inplace",
        "label": "address",
        "numberOfBytes": "20"
      },
      "t_array(t_contract(Collection)4504)dyn_storage": {
        "base": "t_contract(Collection)4504",
        "encoding": "dynamic_array",
        "label": "contract Collection[]",
        "numberOfBytes": "32"
      },
      "t_bool": {
        "encoding": "inplace",
        "label": "bool",
        "numberOfBytes": "1"
      },
      "t_bytes32": {
        "encoding": "inplace",
        "label": "bytes32",
        "numberOfBytes": "32"
      },
      "t_contract(Booster)4334": {
        "encoding": "inplace",
        "label": "contract Booster",
        "numberOfBytes": "20"
      },
      "t_contract(Card)4391": {
        "encoding": "inplace",
        "label": "contract Card",
        "numberOfBytes": "20"
      },
      "t_contract(Collection)4504": {
        "encoding": "inplace",
        "label": "contract Collection",
        "numberOfBytes": "20"
      },
      "t_mapping(t_address,t_bool)": {
        "encoding": "mapping",
        "key": "t_address",
        "label": "mapping(address => bool)",
        "numberOfBytes": "32",
        "value": "t_bool"
      },
      "t_mapping(t_bytes32,t_struct(RoleData)21_storage)": {
        "encoding": "mapping",
        "key": "t_bytes32",
        "label": "mapping(bytes32 => struct AccessControl.RoleData)",
        "numberOfBytes": "32",
        "value": "t_struct(RoleData)21_storage"
      },
      "t_mapping(t_string_memory_ptr,t_contract(Collection)4504)": {
        "encoding": "mapping",
        "key": "t_string_memory_ptr",
        "label": "mapping(string => contract Collection)",
        "numberOfBytes": "32",
        "value": "t_contract(Collection)4504"
      },
      "t_string_memory_ptr": {
        "encoding": "bytes",
        "label": "string",
        "numberOfBytes": "32"
      },
      "t_struct(RoleData)21_storage": {
        "encoding": "inplace",
        "label": "struct AccessControl.RoleData",
        "members": [
          {
            "astId": 18,
            "contract": "contracts/Main.sol:Main",
            "label": "hasRole",
            "offset": 0,
            "slot": "0",
            "type": "t_mapping(t_address,t_bool)"
          },
          {
            "astId": 20,
            "contract": "contracts/Main.sol:Main",
            "label": "adminRole",
            "offset": 0,
            "slot": "1",
            "type": "t_bytes32"
          }
        ],
        "numberOfBytes": "64"
      }
    }
  }
}