{
  "address": "0x9fE46736679d2D9a65F0992F2272dE9f3c7fa6e0",
  "abi": [
    {
      "inputs": [
        {
          "internalType": "address",
          "name": "cardContract",
          "type": "address"
        },
        {
          "internalType": "address",
          "name": "boosterContract",
          "type": "address"
        }
      ],
      "stateMutability": "nonpayable",
      "type": "constructor"
    },
    {
      "inputs": [
        {
          "internalType": "address",
          "name": "owner",
          "type": "address"
        }
      ],
      "name": "OwnableInvalidOwner",
      "type": "error"
    },
    {
      "inputs": [
        {
          "internalType": "address",
          "name": "account",
          "type": "address"
        }
      ],
      "name": "OwnableUnauthorizedAccount",
      "type": "error"
    },
    {
      "anonymous": false,
      "inputs": [
        {
          "indexed": true,
          "internalType": "address",
          "name": "previousOwner",
          "type": "address"
        },
        {
          "indexed": true,
          "internalType": "address",
          "name": "newOwner",
          "type": "address"
        }
      ],
      "name": "OwnershipTransferred",
      "type": "event"
    },
    {
      "inputs": [
        {
          "internalType": "uint256",
          "name": "",
          "type": "uint256"
        }
      ],
      "name": "collections",
      "outputs": [
        {
          "internalType": "contract Collection",
          "name": "",
          "type": "address"
        }
      ],
      "stateMutability": "view",
      "type": "function"
    },
    {
      "inputs": [
        {
          "internalType": "string",
          "name": "_name",
          "type": "string"
        },
        {
          "internalType": "uint256",
          "name": "_expectedCount",
          "type": "uint256"
        }
      ],
      "name": "createCollection",
      "outputs": [
        {
          "internalType": "contract Collection",
          "name": "",
          "type": "address"
        }
      ],
      "stateMutability": "nonpayable",
      "type": "function"
    },
    {
      "inputs": [
        {
          "internalType": "uint256",
          "name": "_collectionId",
          "type": "uint256"
        }
      ],
      "name": "getCollectionById",
      "outputs": [
        {
          "internalType": "contract Collection",
          "name": "",
          "type": "address"
        }
      ],
      "stateMutability": "view",
      "type": "function"
    },
    {
      "inputs": [
        {
          "internalType": "string",
          "name": "_name",
          "type": "string"
        }
      ],
      "name": "getCollectionByName",
      "outputs": [
        {
          "internalType": "contract Collection",
          "name": "",
          "type": "address"
        }
      ],
      "stateMutability": "view",
      "type": "function"
    },
    {
      "inputs": [],
      "name": "getCollections",
      "outputs": [
        {
          "internalType": "contract Collection[]",
          "name": "",
          "type": "address[]"
        }
      ],
      "stateMutability": "view",
      "type": "function"
    },
    {
      "inputs": [
        {
          "internalType": "address",
          "name": "_to",
          "type": "address"
        },
        {
          "internalType": "string",
          "name": "_boosterUri",
          "type": "string"
        },
        {
          "internalType": "uint256[]",
          "name": "_cardIds",
          "type": "uint256[]"
        }
      ],
      "name": "mintBooster",
      "outputs": [
        {
          "internalType": "uint256",
          "name": "",
          "type": "uint256"
        }
      ],
      "stateMutability": "nonpayable",
      "type": "function"
    },
    {
      "inputs": [
        {
          "internalType": "contract Collection",
          "name": "_collection",
          "type": "address"
        },
        {
          "internalType": "string",
          "name": "_cardUri",
          "type": "string"
        }
      ],
      "name": "mintCardForCollection",
      "outputs": [
        {
          "internalType": "uint256",
          "name": "",
          "type": "uint256"
        }
      ],
      "stateMutability": "nonpayable",
      "type": "function"
    },
    {
      "inputs": [
        {
          "internalType": "contract Collection",
          "name": "_collection",
          "type": "address"
        },
        {
          "internalType": "string[]",
          "name": "_cardUris",
          "type": "string[]"
        }
      ],
      "name": "mintCardsForCollection",
      "outputs": [
        {
          "internalType": "uint256[]",
          "name": "",
          "type": "uint256[]"
        }
      ],
      "stateMutability": "nonpayable",
      "type": "function"
    },
    {
      "inputs": [
        {
          "internalType": "address",
          "name": "",
          "type": "address"
        },
        {
          "internalType": "address",
          "name": "",
          "type": "address"
        },
        {
          "internalType": "uint256",
          "name": "",
          "type": "uint256"
        },
        {
          "internalType": "bytes",
          "name": "",
          "type": "bytes"
        }
      ],
      "name": "onERC721Received",
      "outputs": [
        {
          "internalType": "bytes4",
          "name": "",
          "type": "bytes4"
        }
      ],
      "stateMutability": "nonpayable",
      "type": "function"
    },
    {
      "inputs": [],
      "name": "owner",
      "outputs": [
        {
          "internalType": "address",
          "name": "",
          "type": "address"
        }
      ],
      "stateMutability": "view",
      "type": "function"
    },
    {
      "inputs": [],
      "name": "renounceOwnership",
      "outputs": [],
      "stateMutability": "nonpayable",
      "type": "function"
    },
    {
      "inputs": [
        {
          "internalType": "address",
          "name": "_to",
          "type": "address"
        },
        {
          "internalType": "uint256",
          "name": "_cardId",
          "type": "uint256"
        }
      ],
      "name": "transferCard",
      "outputs": [],
      "stateMutability": "nonpayable",
      "type": "function"
    },
    {
      "inputs": [
        {
          "internalType": "address",
          "name": "_to",
          "type": "address"
        },
        {
          "internalType": "uint256[]",
          "name": "_cardIds",
          "type": "uint256[]"
        }
      ],
      "name": "transferCards",
      "outputs": [],
      "stateMutability": "nonpayable",
      "type": "function"
    },
    {
      "inputs": [
        {
          "internalType": "address",
          "name": "newOwner",
          "type": "address"
        }
      ],
      "name": "transferOwnership",
      "outputs": [],
      "stateMutability": "nonpayable",
      "type": "function"
    }
  ],
  "transactionHash": "0x5f0fd8754ed1be27f82c7d1f8324d1852724dec2ab6eecf59cace27ac05b6814",
  "args": [
    "0x5FbDB2315678afecb367f032d93F642f64180aa3",
    "0xe7f1725E7734CE288F8367e1Bb143E90bb3F0512"
  ],
  "numDeployments": 1,
  "solcInputHash": "61cabc8f335922c09862dcac37f9b118",
  "bytecode": "0x60806040523480156200001157600080fd5b5060405162001c9c38038062001c9c833981016040819052620000349162000165565b33806200005b57604051631e4fbdf760e01b81526000600482015260240160405180910390fd5b6200006681620000f8565b50600280546001600160a01b038481166001600160a01b031992831681179093556003805491851691909216811790915560405163a22cb46560e01b815260048101919091526001602482015263a22cb46590604401600060405180830381600087803b158015620000d757600080fd5b505af1158015620000ec573d6000803e3d6000fd5b5050505050506200019d565b600080546001600160a01b038381166001600160a01b0319831681178455604051919092169283917f8be0079c531659141344cd1fd0a4f28419497f9722a3daafe3b4186f6b6457e09190a35050565b80516001600160a01b03811681146200016057600080fd5b919050565b600080604083850312156200017957600080fd5b620001848362000148565b9150620001946020840162000148565b90509250929050565b611aef80620001ad6000396000f3fe60806040523480156200001157600080fd5b5060043610620000fd5760003560e01c80639b81a3591162000097578063e547cb85116200006e578063e547cb85146200026a578063f2fde38b1462000281578063fdbda0ec1462000298578063fe03bdb414620002af57600080fd5b80639b81a3591462000216578063a5c6a72a146200022d578063cd318a98146200025357600080fd5b80635dd7ce8611620000d85780635dd7ce8614620001bb57806364d5415114620001e1578063715018a614620001f85780638da5cb5b146200020457600080fd5b8063150b7a021462000102578063227cb81f146200017257806346e6358614620001a2575b600080fd5b6200013c6200011336600462000b4f565b7f150b7a0200000000000000000000000000000000000000000000000000000000949350505050565b6040517fffffffff0000000000000000000000000000000000000000000000000000000090911681526020015b60405180910390f35b620001896200018336600462000c02565b620002c6565b6040516001600160a01b03909116815260200162000169565b620001ac620002f9565b60405162000169919062000c3b565b620001d2620001cc36600462000d24565b6200035d565b60405190815260200162000169565b62000189620001f236600462000da3565b62000406565b62000202620005de565b005b6000546001600160a01b031662000189565b620002026200022736600462000dec565b620005f6565b620002446200023e36600462000e1b565b6200068b565b60405162000169919062000f2c565b620002026200026436600462000f41565b62000756565b620001896200027b36600462000f97565b620007af565b620002026200029236600462000fb1565b62000836565b62000189620002a936600462000f97565b62000893565b620001d2620002c036600462000fd1565b620008be565b6000600482604051620002da919062001043565b908152604051908190036020019020546001600160a01b031692915050565b606060018054806020026020016040519081016040528092919081815260200182805480156200035357602002820191906000526020600020905b81546001600160a01b0316815260019091019060200180831162000334575b5050505050905090565b600062000369620009de565b6003546040517f8ff142eb0000000000000000000000000000000000000000000000000000000081526001600160a01b0390911690638ff142eb90620003b8908790879087906004016200108f565b6020604051808303816000875af1158015620003d8573d6000803e3d6000fd5b505050506040513d601f19601f82011682018060405250810190620003fe9190620010d1565b949350505050565b600062000412620009de565b6000835111620004695760405162461bcd60e51b815260206004820152601460248201527f4e616d652063616e6e6f7420626520656d70747900000000000000000000000060448201526064015b60405180910390fd5b60006001600160a01b031660048460405162000486919062001043565b908152604051908190036020019020546001600160a01b031614620004ee5760405162461bcd60e51b815260206004820152601960248201527f436f6c6c656374696f6e20616c72656164792065786973747300000000000000604482015260640162000460565b60008383604051620005009062000a83565b6200050d929190620010eb565b604051809103906000f0801580156200052a573d6000803e3d6000fd5b506001805480820182556000919091527fb10e2d527612073b26eecdfd717e6a320cf44b4afac2b0732d9fcbe2b7fa0cf601805473ffffffffffffffffffffffffffffffffffffffff19166001600160a01b03831617905560405190915081906004906200059a90879062001043565b90815260405190819003602001902080546001600160a01b039290921673ffffffffffffffffffffffffffffffffffffffff19909216919091179055905092915050565b620005e8620009de565b620005f4600062000a26565b565b62000600620009de565b6002546040517f42842e0e0000000000000000000000000000000000000000000000000000000081523060048201526001600160a01b03848116602483015260448201849052909116906342842e0e90606401600060405180830381600087803b1580156200066e57600080fd5b505af115801562000683573d6000803e3d6000fd5b505050505050565b606062000697620009de565b815160008167ffffffffffffffff811115620006b757620006b762000aa7565b604051908082528060200260200182016040528015620006e1578160200160208202803683370190505b50905060005b828110156200074d5762000718868683815181106200070a576200070a6200110f565b6020026020010151620008be565b8282815181106200072d576200072d6200110f565b602090810291909101015280620007448162001125565b915050620006e7565b50949350505050565b62000760620009de565b60005b8151811015620007aa5762000795838383815181106200078757620007876200110f565b6020026020010151620005f6565b80620007a18162001125565b91505062000763565b505050565b6001546000908210620008055760405162461bcd60e51b815260206004820152601960248201527f436f6c6c656374696f6e20646f6573206e6f7420657869737400000000000000604482015260640162000460565b600182815481106200081b576200081b6200110f565b6000918252602090912001546001600160a01b031692915050565b62000840620009de565b6001600160a01b03811662000885576040517f1e4fbdf70000000000000000000000000000000000000000000000000000000081526000600482015260240162000460565b620008908162000a26565b50565b60018181548110620008a457600080fd5b6000918252602090912001546001600160a01b0316905081565b6000620008ca620009de565b6002546040517fd0def5210000000000000000000000000000000000000000000000000000000081526000916001600160a01b03169063d0def521906200091890309087906004016200114d565b6020604051808303816000875af115801562000938573d6000803e3d6000fd5b505050506040513d601f19601f820116820180604052508101906200095e9190620010d1565b6040517ff9e53755000000000000000000000000000000000000000000000000000000008152600481018290529091506001600160a01b0385169063f9e5375590602401600060405180830381600087803b158015620009bd57600080fd5b505af1158015620009d2573d6000803e3d6000fd5b50929695505050505050565b6000546001600160a01b03163314620005f4576040517f118cdaa700000000000000000000000000000000000000000000000000000000815233600482015260240162000460565b600080546001600160a01b0383811673ffffffffffffffffffffffffffffffffffffffff19831681178455604051919092169283917f8be0079c531659141344cd1fd0a4f28419497f9722a3daafe3b4186f6b6457e09190a35050565b610948806200117283390190565b6001600160a01b03811681146200089057600080fd5b634e487b7160e01b600052604160045260246000fd5b604051601f8201601f1916810167ffffffffffffffff8111828210171562000ae95762000ae962000aa7565b604052919050565b600067ffffffffffffffff83111562000b0e5762000b0e62000aa7565b62000b23601f8401601f191660200162000abd565b905082815283838301111562000b3857600080fd5b828260208301376000602084830101529392505050565b6000806000806080858703121562000b6657600080fd5b843562000b738162000a91565b9350602085013562000b858162000a91565b925060408501359150606085013567ffffffffffffffff81111562000ba957600080fd5b8501601f8101871362000bbb57600080fd5b62000bcc8782356020840162000af1565b91505092959194509250565b600082601f83011262000bea57600080fd5b62000bfb8383356020850162000af1565b9392505050565b60006020828403121562000c1557600080fd5b813567ffffffffffffffff81111562000c2d57600080fd5b620003fe8482850162000bd8565b6020808252825182820181905260009190848201906040850190845b8181101562000c7e5783516001600160a01b03168352928401929184019160010162000c57565b50909695505050505050565b600067ffffffffffffffff82111562000ca75762000ca762000aa7565b5060051b60200190565b600082601f83011262000cc357600080fd5b8135602062000cdc62000cd68362000c8a565b62000abd565b82815260059290921b8401810191818101908684111562000cfc57600080fd5b8286015b8481101562000d19578035835291830191830162000d00565b509695505050505050565b60008060006060848603121562000d3a57600080fd5b833562000d478162000a91565b9250602084013567ffffffffffffffff8082111562000d6557600080fd5b62000d738783880162000bd8565b9350604086013591508082111562000d8a57600080fd5b5062000d998682870162000cb1565b9150509250925092565b6000806040838503121562000db757600080fd5b823567ffffffffffffffff81111562000dcf57600080fd5b62000ddd8582860162000bd8565b95602094909401359450505050565b6000806040838503121562000e0057600080fd5b823562000e0d8162000a91565b946020939093013593505050565b6000806040838503121562000e2f57600080fd5b823562000e3c8162000a91565b915060208381013567ffffffffffffffff8082111562000e5b57600080fd5b818601915086601f83011262000e7057600080fd5b813562000e8162000cd68262000c8a565b81815260059190911b8301840190848101908983111562000ea157600080fd5b8585015b8381101562000ede5780358581111562000ebf5760008081fd5b62000ecf8c89838a010162000bd8565b84525091860191860162000ea5565b508096505050505050509250929050565b600081518084526020808501945080840160005b8381101562000f215781518752958201959082019060010162000f03565b509495945050505050565b60208152600062000bfb602083018462000eef565b6000806040838503121562000f5557600080fd5b823562000f628162000a91565b9150602083013567ffffffffffffffff81111562000f7f57600080fd5b62000f8d8582860162000cb1565b9150509250929050565b60006020828403121562000faa57600080fd5b5035919050565b60006020828403121562000fc457600080fd5b813562000bfb8162000a91565b6000806040838503121562000fe557600080fd5b823562000ff28162000a91565b9150602083013567ffffffffffffffff8111156200100f57600080fd5b62000f8d8582860162000bd8565b60005b838110156200103a57818101518382015260200162001020565b50506000910152565b60008251620010578184602087016200101d565b9190910192915050565b600081518084526200107b8160208601602086016200101d565b601f01601f19169290920160200192915050565b6001600160a01b0384168152606060208201526000620010b3606083018562001061565b8281036040840152620010c7818562000eef565b9695505050505050565b600060208284031215620010e457600080fd5b5051919050565b60408152600062001100604083018562001061565b90508260208301529392505050565b634e487b7160e01b600052603260045260246000fd5b6000600182016200114657634e487b7160e01b600052601160045260246000fd5b5060010190565b6001600160a01b0383168152604060208201526000620003fe60408301846200106156fe608060405234801561001057600080fd5b506040516200094838038062000948833981016040819052610031916100dd565b338061005757604051631e4fbdf760e01b81526000600482015260240160405180910390fd5b61006081610077565b50600161006d8382610235565b50600455506102f4565b600080546001600160a01b038381166001600160a01b0319831681178455604051919092169283917f8be0079c531659141344cd1fd0a4f28419497f9722a3daafe3b4186f6b6457e09190a35050565b634e487b7160e01b600052604160045260246000fd5b600080604083850312156100f057600080fd5b82516001600160401b038082111561010757600080fd5b818501915085601f83011261011b57600080fd5b81518181111561012d5761012d6100c7565b604051601f8201601f19908116603f01168101908382118183101715610155576101556100c7565b8160405282815260209350888484870101111561017157600080fd5b600091505b828210156101935784820184015181830185015290830190610176565b6000928101840192909252509401519395939450505050565b600181811c908216806101c057607f821691505b6020821081036101e057634e487b7160e01b600052602260045260246000fd5b50919050565b601f82111561023057600081815260208120601f850160051c8101602086101561020d5750805b601f850160051c820191505b8181101561022c57828155600101610219565b5050505b505050565b81516001600160401b0381111561024e5761024e6100c7565b6102628161025c84546101ac565b846101e6565b602080601f831160018114610297576000841561027f5750858301515b600019600386901b1c1916600185901b17855561022c565b600085815260208120601f198616915b828110156102c6578886015182559484019460019091019084016102a7565b50858210156102e45787850151600019600388901b60f8161c191681555b5050505050600190811b01905550565b61064480620003046000396000f3fe608060405234801561001057600080fd5b50600436106100a35760003560e01c806396c07a3511610076578063bc256a491161005b578063bc256a491461011b578063f2fde38b1461013e578063f9e537551461015157600080fd5b806396c07a35146100fd578063b0df9e531461010657600080fd5b806306661abd146100a857806306fdde03146100c3578063715018a6146100d85780638da5cb5b146100e2575b600080fd5b6100b0610164565b6040519081526020015b60405180910390f35b6100cb610175565b6040516100ba91906104e7565b6100e0610203565b005b6000546040516001600160a01b0390911681526020016100ba565b6100b060045481565b61010e610217565b6040516100ba9190610535565b61012e610129366004610579565b610223565b60405190151581526020016100ba565b6100e061014c366004610592565b61023b565b6100e061015f366004610579565b610297565b60006101706002610364565b905090565b60018054610182906105bb565b80601f01602080910402602001604051908101604052809291908181526020018280546101ae906105bb565b80156101fb5780601f106101d0576101008083540402835291602001916101fb565b820191906000526020600020905b8154815290600101906020018083116101de57829003601f168201915b505050505081565b61020b61036e565b61021560006103b4565b565b6060610170600261041c565b60008181526003602052604081205415155b92915050565b61024361036e565b6001600160a01b03811661028b576040517f1e4fbdf7000000000000000000000000000000000000000000000000000000008152600060048201526024015b60405180910390fd5b610294816103b4565b50565b61029f61036e565b600081815260036020526040902054156102fb5760405162461bcd60e51b815260206004820152601a60248201527f4361726420616c726561647920696e20636f6c6c656374696f6e0000000000006044820152606401610282565b6004546103086002610364565b106103555760405162461bcd60e51b815260206004820152601260248201527f436f6c6c656374696f6e2069732066756c6c00000000000000000000000000006044820152606401610282565b610360600282610430565b5050565b6000610235825490565b6000546001600160a01b03163314610215576040517f118cdaa7000000000000000000000000000000000000000000000000000000008152336004820152602401610282565b600080546001600160a01b038381167fffffffffffffffffffffffff0000000000000000000000000000000000000000831681178455604051919092169283917f8be0079c531659141344cd1fd0a4f28419497f9722a3daafe3b4186f6b6457e09190a35050565b606060006104298361043c565b9392505050565b60006104298383610498565b60608160000180548060200260200160405190810160405280929190818152602001828054801561048c57602002820191906000526020600020905b815481526020019060010190808311610478575b50505050509050919050565b60008181526001830160205260408120546104df57508154600181810184556000848152602080822090930184905584548482528286019093526040902091909155610235565b506000610235565b600060208083528351808285015260005b81811015610514578581018301518582016040015282016104f8565b506000604082860101526040601f19601f8301168501019250505092915050565b6020808252825182820181905260009190848201906040850190845b8181101561056d57835183529284019291840191600101610551565b50909695505050505050565b60006020828403121561058b57600080fd5b5035919050565b6000602082840312156105a457600080fd5b81356001600160a01b038116811461042957600080fd5b600181811c908216806105cf57607f821691505b602082108103610608577f4e487b7100000000000000000000000000000000000000000000000000000000600052602260045260246000fd5b5091905056fea26469706673582212200372284c8e4a30b13d6b83d03245a1eca16fc9dad9b5be5af195b602bb17dd3f64736f6c63430008140033a26469706673582212200a0e40866eb05bbce7c82e522b6004a8bbcefda2d87b4d9e82cfd3ee0e3de55e64736f6c63430008140033",
  "devdoc": {
    "details": "Main contract, used to create collections and mint cards.",
    "errors": {
      "OwnableInvalidOwner(address)": [
        {
          "details": "The owner is not a valid owner account. (eg. `address(0)`)"
        }
      ],
      "OwnableUnauthorizedAccount(address)": [
        {
          "details": "The caller account is not authorized to perform an operation."
        }
      ]
    },
    "kind": "dev",
    "methods": {
      "constructor": {
        "params": {
          "cardContract": "Card contract address"
        }
      },
      "createCollection(string,uint256)": {
        "params": {
          "_expectedCount": "Expected number of cards in the collection",
          "_name": "Collection name"
        },
        "returns": {
          "_0": "The created collection"
        }
      },
      "getCollectionById(uint256)": {
        "params": {
          "_collectionId": "Collection id"
        },
        "returns": {
          "_0": "The collection"
        }
      },
      "getCollectionByName(string)": {
        "params": {
          "_name": "Collection name"
        },
        "returns": {
          "_0": "The collection"
        }
      },
      "getCollections()": {
        "returns": {
          "_0": "All available collections"
        }
      },
      "mintBooster(address,string,uint256[])": {
        "params": {
          "_boosterUri": "Booster metadata URI",
          "_cardIds": "Array of card ids to add to the booster",
          "_to": "Address to mint the booster to"
        },
        "returns": {
          "_0": "Booster id"
        }
      },
      "mintCardForCollection(address,string)": {
        "returns": {
          "_0": "Card token id"
        }
      },
      "mintCardsForCollection(address,string[])": {
        "returns": {
          "_0": "Array of card token ids"
        }
      },
      "onERC721Received(address,address,uint256,bytes)": {
        "details": "See {IERC721Receiver-onERC721Received}. Always returns `IERC721Receiver.onERC721Received.selector`."
      },
      "owner()": {
        "details": "Returns the address of the current owner."
      },
      "renounceOwnership()": {
        "details": "Leaves the contract without owner. It will not be possible to call `onlyOwner` functions. Can only be called by the current owner. NOTE: Renouncing ownership will leave the contract without an owner, thereby disabling any functionality that is only available to the owner."
      },
      "transferCard(address,uint256)": {
        "params": {
          "_cardId": "Card id",
          "_to": "Address to transfer to"
        }
      },
      "transferCards(address,uint256[])": {
        "params": {
          "_cardIds": "Card ids",
          "_to": "Address to transfer to"
        }
      },
      "transferOwnership(address)": {
        "details": "Transfers ownership of the contract to a new account (`newOwner`). Can only be called by the current owner."
      }
    },
    "stateVariables": {
      "_boosterContract": {
        "details": "Booster contract"
      },
      "_cardContract": {
        "details": "Card contract"
      },
      "_collectionsByName": {
        "details": "Mapping of collection names to collections"
      },
      "collections": {
        "details": "Array of all collections"
      }
    },
    "title": "Main",
    "version": 1
  },
  "userdoc": {
    "kind": "user",
    "methods": {
      "constructor": {
        "notice": "Constructor, which takes the address of the Card contract."
      },
      "createCollection(string,uint256)": {
        "notice": "Create a new collection of cards."
      },
      "getCollectionById(uint256)": {
        "notice": "Get a collection by index."
      },
      "getCollectionByName(string)": {
        "notice": "Get a collection by name."
      },
      "getCollections()": {
        "notice": "Get all collections available."
      },
      "mintBooster(address,string,uint256[])": {
        "notice": "Mint a booster of cards with `_boosterUri` as the token URI and add the cards `_cardIds` to the booster while transferring them to `_to`."
      },
      "mintCardForCollection(address,string)": {
        "notice": "Mint a new card and add it to the provided collection."
      },
      "mintCardsForCollection(address,string[])": {
        "notice": "Mint multiple cards and add them to the provided collection."
      },
      "transferCard(address,uint256)": {
        "notice": "Transfer a card to an address."
      },
      "transferCards(address,uint256[])": {
        "notice": "Transfer multiple cards to an address."
      }
    },
    "notice": "This contract is used to create collections, mint cards and also used to transfer cards to other addresses, since we assume it's the owner of the Card contract and therefore is the original owner of all cards.",
    "version": 1
  },
  "storageLayout": {
    "storage": [
      {
        "astId": 8,
        "contract": "contracts/Main.sol:Main",
        "label": "_owner",
        "offset": 0,
        "slot": "0",
        "type": "t_address"
      },
      {
        "astId": 4124,
        "contract": "contracts/Main.sol:Main",
        "label": "collections",
        "offset": 0,
        "slot": "1",
        "type": "t_array(t_contract(Collection)4107)dyn_storage"
      },
      {
        "astId": 4128,
        "contract": "contracts/Main.sol:Main",
        "label": "_cardContract",
        "offset": 0,
        "slot": "2",
        "type": "t_contract(Card)3994"
      },
      {
        "astId": 4132,
        "contract": "contracts/Main.sol:Main",
        "label": "_boosterContract",
        "offset": 0,
        "slot": "3",
        "type": "t_contract(Booster)3937"
      },
      {
        "astId": 4138,
        "contract": "contracts/Main.sol:Main",
        "label": "_collectionsByName",
        "offset": 0,
        "slot": "4",
        "type": "t_mapping(t_string_memory_ptr,t_contract(Collection)4107)"
      }
    ],
    "types": {
      "t_address": {
        "encoding": "inplace",
        "label": "address",
        "numberOfBytes": "20"
      },
      "t_array(t_contract(Collection)4107)dyn_storage": {
        "base": "t_contract(Collection)4107",
        "encoding": "dynamic_array",
        "label": "contract Collection[]",
        "numberOfBytes": "32"
      },
      "t_contract(Booster)3937": {
        "encoding": "inplace",
        "label": "contract Booster",
        "numberOfBytes": "20"
      },
      "t_contract(Card)3994": {
        "encoding": "inplace",
        "label": "contract Card",
        "numberOfBytes": "20"
      },
      "t_contract(Collection)4107": {
        "encoding": "inplace",
        "label": "contract Collection",
        "numberOfBytes": "20"
      },
      "t_mapping(t_string_memory_ptr,t_contract(Collection)4107)": {
        "encoding": "mapping",
        "key": "t_string_memory_ptr",
        "label": "mapping(string => contract Collection)",
        "numberOfBytes": "32",
        "value": "t_contract(Collection)4107"
      },
      "t_string_memory_ptr": {
        "encoding": "bytes",
        "label": "string",
        "numberOfBytes": "32"
      }
    }
  }
}